{
  "_format": "hh-sol-artifact-1",
  "contractName": "EscrowContract",
  "sourceName": "contracts/EscrowContract.sol",
  "abi": [
    {
      "inputs": [
        {
          "internalType": "address",
          "name": "_founderWallet",
          "type": "address"
        },
        {
          "internalType": "address",
          "name": "initialOwner",
          "type": "address"
        }
      ],
      "stateMutability": "nonpayable",
      "type": "constructor"
    },
    {
      "inputs": [
        {
          "internalType": "address",
          "name": "owner",
          "type": "address"
        }
      ],
      "name": "OwnableInvalidOwner",
      "type": "error"
    },
    {
      "inputs": [
        {
          "internalType": "address",
          "name": "account",
          "type": "address"
        }
      ],
      "name": "OwnableUnauthorizedAccount",
      "type": "error"
    },
    {
      "inputs": [],
      "name": "ReentrancyGuardReentrantCall",
      "type": "error"
    },
    {
      "anonymous": false,
      "inputs": [
        {
          "indexed": false,
          "internalType": "uint256",
          "name": "amount",
          "type": "uint256"
        }
      ],
      "name": "FundsDeposited",
      "type": "event"
    },
    {
      "anonymous": false,
      "inputs": [
        {
          "indexed": false,
          "internalType": "uint8",
          "name": "milestoneNumber",
          "type": "uint8"
        },
        {
          "indexed": false,
          "internalType": "uint256",
          "name": "amount",
          "type": "uint256"
        },
        {
          "indexed": false,
          "internalType": "address",
          "name": "to",
          "type": "address"
        }
      ],
      "name": "MilestoneReleased",
      "type": "event"
    },
    {
      "anonymous": false,
      "inputs": [
        {
          "indexed": true,
          "internalType": "address",
          "name": "previousOwner",
          "type": "address"
        },
        {
          "indexed": true,
          "internalType": "address",
          "name": "newOwner",
          "type": "address"
        }
      ],
      "name": "OwnershipTransferred",
      "type": "event"
    },
    {
      "anonymous": false,
      "inputs": [
        {
          "indexed": true,
          "internalType": "address",
          "name": "contractAddress",
          "type": "address"
        }
      ],
      "name": "TokenSaleContractSet",
      "type": "event"
    },
    {
      "inputs": [],
      "name": "depositFunds",
      "outputs": [],
      "stateMutability": "payable",
      "type": "function"
    },
    {
      "inputs": [],
      "name": "founderWallet",
      "outputs": [
        {
          "internalType": "address",
          "name": "",
          "type": "address"
        }
      ],
      "stateMutability": "view",
      "type": "function"
    },
    {
      "inputs": [],
      "name": "getBalance",
      "outputs": [
        {
          "internalType": "uint256",
          "name": "",
          "type": "uint256"
        }
      ],
      "stateMutability": "view",
      "type": "function"
    },
    {
      "inputs": [],
      "name": "getMilestoneStatus",
      "outputs": [
        {
          "internalType": "bool",
          "name": "m1Released",
          "type": "bool"
        },
        {
          "internalType": "bool",
          "name": "m2Released",
          "type": "bool"
        }
      ],
      "stateMutability": "view",
      "type": "function"
    },
    {
      "inputs": [],
      "name": "milestone1Released",
      "outputs": [
        {
          "internalType": "bool",
          "name": "",
          "type": "bool"
        }
      ],
      "stateMutability": "view",
      "type": "function"
    },
    {
      "inputs": [],
      "name": "milestone2Released",
      "outputs": [
        {
          "internalType": "bool",
          "name": "",
          "type": "bool"
        }
      ],
      "stateMutability": "view",
      "type": "function"
    },
    {
      "inputs": [],
      "name": "owner",
      "outputs": [
        {
          "internalType": "address",
          "name": "",
          "type": "address"
        }
      ],
      "stateMutability": "view",
      "type": "function"
    },
    {
      "inputs": [
        {
          "internalType": "uint8",
          "name": "milestoneNumber",
          "type": "uint8"
        }
      ],
      "name": "releaseMilestone",
      "outputs": [],
      "stateMutability": "nonpayable",
      "type": "function"
    },
    {
      "inputs": [],
      "name": "renounceOwnership",
      "outputs": [],
      "stateMutability": "nonpayable",
      "type": "function"
    },
    {
      "inputs": [
        {
          "internalType": "address",
          "name": "_tokenSaleContract",
          "type": "address"
        }
      ],
      "name": "setTokenSaleContract",
      "outputs": [],
      "stateMutability": "nonpayable",
      "type": "function"
    },
    {
      "inputs": [],
      "name": "tokenSaleContract",
      "outputs": [
        {
          "internalType": "address",
          "name": "",
          "type": "address"
        }
      ],
      "stateMutability": "view",
      "type": "function"
    },
    {
      "inputs": [],
      "name": "totalDeposited",
      "outputs": [
        {
          "internalType": "uint256",
          "name": "",
          "type": "uint256"
        }
      ],
      "stateMutability": "view",
      "type": "function"
    },
    {
      "inputs": [
        {
          "internalType": "address",
          "name": "newOwner",
          "type": "address"
        }
      ],
      "name": "transferOwnership",
      "outputs": [],
      "stateMutability": "nonpayable",
      "type": "function"
    },
    {
      "stateMutability": "payable",
      "type": "receive"
    }
  ],
  "bytecode": "0x60a060405234801561001057600080fd5b50604051610d30380380610d3083398101604081905261002f91610141565b806001600160a01b03811661005f57604051631e4fbdf760e01b8152600060048201526024015b60405180910390fd5b610068816100d5565b50600180556001600160a01b0382166100c35760405162461bcd60e51b815260206004820152601e60248201527f457363726f773a20696e76616c696420666f756e6465722077616c6c657400006044820152606401610056565b506001600160a01b0316608052610174565b600080546001600160a01b038381166001600160a01b0319831681178455604051919092169283917f8be0079c531659141344cd1fd0a4f28419497f9722a3daafe3b4186f6b6457e09190a35050565b80516001600160a01b038116811461013c57600080fd5b919050565b6000806040838503121561015457600080fd5b61015d83610125565b915061016b60208401610125565b90509250929050565b608051610b856101ab6000396000818161025a0152818161053f015281816106090152818161078e01526108580152610b856000f3fe6080604052600436106100c65760003560e01c806377ca2f4e1161007f578063d6778ea911610059578063d6778ea91461027c578063e2c41dbc1461029b578063f2fde38b146102a3578063ff50abdc146102c357600080fd5b806377ca2f4e146101f75780638da5cb5b1461022a578063a23d3c351461024857600080fd5b806312065fe01461011c578063354d89ee1461013e57806336b7681b146101605780635d5aa2771461018a57806369ffff94146101c2578063715018a6146101e257600080fd5b366101175734600360008282546100dd9190610ab3565b90915550506040513481527f7cb5d45c1071f219bd2da1ea101758715bd52f23f2a707f2d9a0387dea18d9069060200160405180910390a1005b600080fd5b34801561012857600080fd5b50475b6040519081526020015b60405180910390f35b34801561014a57600080fd5b5061015e610159366004610ada565b6102d9565b005b34801561016c57600080fd5b5060045461017a9060ff1681565b6040519015158152602001610135565b34801561019657600080fd5b506002546101aa906001600160a01b031681565b6040516001600160a01b039091168152602001610135565b3480156101ce57600080fd5b5061015e6101dd366004610b0a565b6103ed565b3480156101ee57600080fd5b5061015e6108bf565b34801561020357600080fd5b5060045460ff80821691610100900416604080519215158352901515602083015201610135565b34801561023657600080fd5b506000546001600160a01b03166101aa565b34801561025457600080fd5b506101aa7f000000000000000000000000000000000000000000000000000000000000000081565b34801561028857600080fd5b5060045461017a90610100900460ff1681565b61015e6108d3565b3480156102af57600080fd5b5061015e6102be366004610ada565b6109d1565b3480156102cf57600080fd5b5061012b60035481565b6102e1610a0c565b6002546001600160a01b03161561034d5760405162461bcd60e51b815260206004820152602560248201527f457363726f773a20546f6b656e53616c65436f6e747261637420616c726561646044820152641e481cd95d60da1b60648201526084015b60405180910390fd5b6001600160a01b0381166103a35760405162461bcd60e51b815260206004820152601760248201527f457363726f773a20696e76616c696420616464726573730000000000000000006044820152606401610344565b600280546001600160a01b0319166001600160a01b0383169081179091556040517f998c18cf7fdf3c572ac360d46aa11b7eb8bada83e6c971ce7444dae5a7fde6e890600090a250565b6103f5610a0c565b6103fd610a39565b8060ff166001148061041257508060ff166002145b61045e5760405162461bcd60e51b815260206004820181905260248201527f457363726f773a20696e76616c6964206d696c6573746f6e65206e756d6265726044820152606401610344565b6000600354116104b05760405162461bcd60e51b815260206004820152601a60248201527f457363726f773a206e6f2066756e647320696e20657363726f770000000000006044820152606401610344565b8060ff166001036106685760045460ff161561051a5760405162461bcd60e51b8152602060048201526024808201527f457363726f773a204d696c6573746f6e65203120616c72656164792072656c65604482015263185cd95960e21b6064820152608401610344565b6004805460ff1916600117905560035460009061053990600290610b2d565b905060007f00000000000000000000000000000000000000000000000000000000000000006001600160a01b03168260405160006040518083038185875af1925050503d80600081146105a8576040519150601f19603f3d011682016040523d82523d6000602084013e6105ad565b606091505b50509050806105f85760405162461bcd60e51b8152602060048201526017602482015276115cd8dc9bddce881d1c985b9cd9995c8819985a5b1959604a1b6044820152606401610344565b6040805160018152602081018490527f00000000000000000000000000000000000000000000000000000000000000006001600160a01b03168183015290517fb750a6ea27f3cdbf94a41b5f03fde4a9780cea62e42b8346e8e3acca825874009181900360600190a150506108b3565b60045460ff166106c95760405162461bcd60e51b815260206004820152602660248201527f457363726f773a204d7573742072656c65617365204d696c6573746f6e65203160448201526508199a5c9cdd60d21b6064820152608401610344565b600454610100900460ff161561072d5760405162461bcd60e51b8152602060048201526024808201527f457363726f773a204d696c6573746f6e65203220616c72656164792072656c65604482015263185cd95960e21b6064820152608401610344565b6004805461ff001916610100179055478061078a5760405162461bcd60e51b815260206004820152601c60248201527f457363726f773a206e6f2072656d61696e696e672062616c616e6365000000006044820152606401610344565b60007f00000000000000000000000000000000000000000000000000000000000000006001600160a01b03168260405160006040518083038185875af1925050503d80600081146107f7576040519150601f19603f3d011682016040523d82523d6000602084013e6107fc565b606091505b50509050806108475760405162461bcd60e51b8152602060048201526017602482015276115cd8dc9bddce881d1c985b9cd9995c8819985a5b1959604a1b6044820152606401610344565b6040805160028152602081018490527f00000000000000000000000000000000000000000000000000000000000000006001600160a01b03168183015290517fb750a6ea27f3cdbf94a41b5f03fde4a9780cea62e42b8346e8e3acca825874009181900360600190a150505b6108bc60018055565b50565b6108c7610a0c565b6108d16000610a63565b565b6002546001600160a01b0316331461093d5760405162461bcd60e51b815260206004820152602760248201527f457363726f773a2063616c6c6572206973206e6f7420546f6b656e53616c65436044820152661bdb9d1c9858dd60ca1b6064820152608401610344565b600034116109855760405162461bcd60e51b8152602060048201526015602482015274115cd8dc9bddce881b9bc8199d5b991cc81cd95b9d605a1b6044820152606401610344565b34600360008282546109979190610ab3565b90915550506040513481527f7cb5d45c1071f219bd2da1ea101758715bd52f23f2a707f2d9a0387dea18d9069060200160405180910390a1565b6109d9610a0c565b6001600160a01b038116610a0357604051631e4fbdf760e01b815260006004820152602401610344565b6108bc81610a63565b6000546001600160a01b031633146108d15760405163118cdaa760e01b8152336004820152602401610344565b600260015403610a5c57604051633ee5aeb560e01b815260040160405180910390fd5b6002600155565b600080546001600160a01b038381166001600160a01b0319831681178455604051919092169283917f8be0079c531659141344cd1fd0a4f28419497f9722a3daafe3b4186f6b6457e09190a35050565b80820180821115610ad457634e487b7160e01b600052601160045260246000fd5b92915050565b600060208284031215610aec57600080fd5b81356001600160a01b0381168114610b0357600080fd5b9392505050565b600060208284031215610b1c57600080fd5b813560ff81168114610b0357600080fd5b600082610b4a57634e487b7160e01b600052601260045260246000fd5b50049056fea26469706673582212207646588a8d2585a8714014181ddb1ffe3adea7ce21f799725132af3e06ef8cc964736f6c63430008140033",
  "linkReferences": {},
  "deployedLinkReferences": {}
}