{
  "_format": "hh-sol-artifact-1",
  "contractName": "LaunchpadFactory",
  "sourceName": "contracts/LaunchpadFactory.sol",
  "abi": [
    {
      "anonymous": false,
      "inputs": [
        {
          "indexed": true,
          "internalType": "address",
          "name": "founder",
          "type": "address"
        },
        {
          "indexed": true,
          "internalType": "address",
          "name": "tokenSale",
          "type": "address"
        },
        {
          "indexed": true,
          "internalType": "address",
          "name": "escrow",
          "type": "address"
        },
        {
          "indexed": false,
          "internalType": "string",
          "name": "name",
          "type": "string"
        },
        {
          "indexed": false,
          "internalType": "string",
          "name": "symbol",
          "type": "string"
        }
      ],
      "name": "SaleLaunched",
      "type": "event"
    },
    {
      "inputs": [
        {
          "internalType": "uint256",
          "name": "",
          "type": "uint256"
        }
      ],
      "name": "allSales",
      "outputs": [
        {
          "internalType": "address",
          "name": "",
          "type": "address"
        }
      ],
      "stateMutability": "view",
      "type": "function"
    },
    {
      "inputs": [
        {
          "internalType": "string",
          "name": "_name",
          "type": "string"
        },
        {
          "internalType": "string",
          "name": "_symbol",
          "type": "string"
        },
        {
          "internalType": "uint256",
          "name": "_priceInWei",
          "type": "uint256"
        },
        {
          "internalType": "uint256",
          "name": "_softCap",
          "type": "uint256"
        },
        {
          "internalType": "uint256",
          "name": "_hardCap",
          "type": "uint256"
        },
        {
          "internalType": "uint256",
          "name": "_durationInSeconds",
          "type": "uint256"
        }
      ],
      "name": "createSale",
      "outputs": [
        {
          "internalType": "address",
          "name": "saleAddress",
          "type": "address"
        },
        {
          "internalType": "address",
          "name": "escrowAddress",
          "type": "address"
        }
      ],
      "stateMutability": "nonpayable",
      "type": "function"
    },
    {
      "inputs": [
        {
          "internalType": "address",
          "name": "",
          "type": "address"
        },
        {
          "internalType": "uint256",
          "name": "",
          "type": "uint256"
        }
      ],
      "name": "founderSales",
      "outputs": [
        {
          "internalType": "address",
          "name": "",
          "type": "address"
        }
      ],
      "stateMutability": "view",
      "type": "function"
    },
    {
      "inputs": [],
      "name": "getAllSales",
      "outputs": [
        {
          "internalType": "address[]",
          "name": "",
          "type": "address[]"
        }
      ],
      "stateMutability": "view",
      "type": "function"
    },
    {
      "inputs": [
        {
          "internalType": "address",
          "name": "founder",
          "type": "address"
        }
      ],
      "name": "getSalesByFounder",
      "outputs": [
        {
          "internalType": "address[]",
          "name": "",
          "type": "address[]"
        }
      ],
      "stateMutability": "view",
      "type": "function"
    },
    {
      "inputs": [],
      "name": "getSalesCount",
      "outputs": [
        {
          "internalType": "uint256",
          "name": "",
          "type": "uint256"
        }
      ],
      "stateMutability": "view",
      "type": "function"
    },
    {
      "inputs": [
        {
          "internalType": "address",
          "name": "",
          "type": "address"
        }
      ],
      "name": "saleToEscrow",
      "outputs": [
        {
          "internalType": "address",
          "name": "",
          "type": "address"
        }
      ],
      "stateMutability": "view",
      "type": "function"
    }
  ],
  "bytecode": "0x608060405234801561001057600080fd5b506128e7806100206000396000f3fe60806040523480156200001157600080fd5b5060043610620000875760003560e01c80637b315da611620000625780637b315da614620000f5578063dd8027db146200010c578063e80f6386146200011e578063ea975747146200014a57600080fd5b806333396917146200008c5780635b30b42814620000ae57806378efd93614620000de575b600080fd5b6200009662000182565b604051620000a5919062000567565b60405180910390f35b620000c5620000bf366004620005b6565b620001e6565b6040516001600160a01b039091168152602001620000a5565b620000c5620000ef366004620005ed565b62000211565b62000096620001063660046200061a565b6200024a565b600054604051908152602001620000a5565b620000c56200012f3660046200061a565b6001602052600090815260409020546001600160a01b031681565b620001616200015b366004620006ea565b620002c2565b604080516001600160a01b03938416815292909116602083015201620000a5565b60606000805480602002602001604051908101604052809291908181526020018280548015620001dc57602002820191906000526020600020905b81546001600160a01b03168152600190910190602001808311620001bd575b5050505050905090565b60008181548110620001f757600080fd5b6000918252602090912001546001600160a01b0316905081565b600260205281600052604060002081815481106200022e57600080fd5b6000918252602090912001546001600160a01b03169150829050565b6001600160a01b038116600090815260026020908152604091829020805483518184028101840190945280845260609392830182828015620002b657602002820191906000526020600020905b81546001600160a01b0316815260019091019060200180831162000297575b50505050509050919050565b60008060003330604051620002d7906200054b565b6001600160a01b03928316815291166020820152604001604051809103906000f0801580156200030b573d6000803e3d6000fd5b50905080915060008989898989898830604051620003299062000559565b6200033c989796959493929190620007c0565b604051809103906000f08015801562000359573d6000803e3d6000fd5b50604051631aa6c4f760e11b81526001600160a01b0380831660048301529195508592509083169063354d89ee90602401600060405180830381600087803b158015620003a557600080fd5b505af1158015620003ba573d6000803e3d6000fd5b505060405163f2fde38b60e01b81523360048201526001600160a01b038516925063f2fde38b9150602401600060405180830381600087803b1580156200040057600080fd5b505af115801562000415573d6000803e3d6000fd5b505060405163f2fde38b60e01b81523360048201526001600160a01b038416925063f2fde38b9150602401600060405180830381600087803b1580156200045b57600080fd5b505af115801562000470573d6000803e3d6000fd5b505060008054600181810183557f290decd9548b62a8d60345a988386fc84ba6bc95484008f6362f93160ef3e56390910180546001600160a01b03808b166001600160a01b03199283168117909355828552602084815260408087208054938d16938516841790553380885260028352818820805497880181558852919096209094018054909216831790915592519294509250907fe11dc8ca04ce4113838694563d97f60c0d1533934d9f7582d7a90f65420b42ad9062000536908f908f906200082b565b60405180910390a45050965096945050505050565b610d30806200085e83390190565b611324806200158e83390190565b6020808252825182820181905260009190848201906040850190845b81811015620005aa5783516001600160a01b03168352928401929184019160010162000583565b50909695505050505050565b600060208284031215620005c957600080fd5b5035919050565b80356001600160a01b0381168114620005e857600080fd5b919050565b600080604083850312156200060157600080fd5b6200060c83620005d0565b946020939093013593505050565b6000602082840312156200062d57600080fd5b6200063882620005d0565b9392505050565b634e487b7160e01b600052604160045260246000fd5b600082601f8301126200066757600080fd5b813567ffffffffffffffff808211156200068557620006856200063f565b604051601f8301601f19908116603f01168101908282118183101715620006b057620006b06200063f565b81604052838152866020858801011115620006ca57600080fd5b836020870160208301376000602085830101528094505050505092915050565b60008060008060008060c087890312156200070457600080fd5b863567ffffffffffffffff808211156200071d57600080fd5b6200072b8a838b0162000655565b975060208901359150808211156200074257600080fd5b506200075189828a0162000655565b96999698505050506040850135946060810135946080820135945060a09091013592509050565b6000815180845260005b81811015620007a05760208185018101518683018201520162000782565b506000602082860101526020601f19601f83011685010191505092915050565b6000610100808352620007d68184018c62000778565b90508281036020840152620007ec818b62000778565b604084019990995250506060810195909552608085019390935260a08401919091526001600160a01b0390811660c08401521660e09091015292915050565b60408152600062000840604083018562000778565b828103602084015262000854818562000778565b9594505050505056fe60a060405234801561001057600080fd5b50604051610d30380380610d3083398101604081905261002f91610141565b806001600160a01b03811661005f57604051631e4fbdf760e01b8152600060048201526024015b60405180910390fd5b610068816100d5565b50600180556001600160a01b0382166100c35760405162461bcd60e51b815260206004820152601e60248201527f457363726f773a20696e76616c696420666f756e6465722077616c6c657400006044820152606401610056565b506001600160a01b0316608052610174565b600080546001600160a01b038381166001600160a01b0319831681178455604051919092169283917f8be0079c531659141344cd1fd0a4f28419497f9722a3daafe3b4186f6b6457e09190a35050565b80516001600160a01b038116811461013c57600080fd5b919050565b6000806040838503121561015457600080fd5b61015d83610125565b915061016b60208401610125565b90509250929050565b608051610b856101ab6000396000818161025a0152818161053f015281816106090152818161078e01526108580152610b856000f3fe6080604052600436106100c65760003560e01c806377ca2f4e1161007f578063d6778ea911610059578063d6778ea91461027c578063e2c41dbc1461029b578063f2fde38b146102a3578063ff50abdc146102c357600080fd5b806377ca2f4e146101f75780638da5cb5b1461022a578063a23d3c351461024857600080fd5b806312065fe01461011c578063354d89ee1461013e57806336b7681b146101605780635d5aa2771461018a57806369ffff94146101c2578063715018a6146101e257600080fd5b366101175734600360008282546100dd9190610ab3565b90915550506040513481527f7cb5d45c1071f219bd2da1ea101758715bd52f23f2a707f2d9a0387dea18d9069060200160405180910390a1005b600080fd5b34801561012857600080fd5b50475b6040519081526020015b60405180910390f35b34801561014a57600080fd5b5061015e610159366004610ada565b6102d9565b005b34801561016c57600080fd5b5060045461017a9060ff1681565b6040519015158152602001610135565b34801561019657600080fd5b506002546101aa906001600160a01b031681565b6040516001600160a01b039091168152602001610135565b3480156101ce57600080fd5b5061015e6101dd366004610b0a565b6103ed565b3480156101ee57600080fd5b5061015e6108bf565b34801561020357600080fd5b5060045460ff80821691610100900416604080519215158352901515602083015201610135565b34801561023657600080fd5b506000546001600160a01b03166101aa565b34801561025457600080fd5b506101aa7f000000000000000000000000000000000000000000000000000000000000000081565b34801561028857600080fd5b5060045461017a90610100900460ff1681565b61015e6108d3565b3480156102af57600080fd5b5061015e6102be366004610ada565b6109d1565b3480156102cf57600080fd5b5061012b60035481565b6102e1610a0c565b6002546001600160a01b03161561034d5760405162461bcd60e51b815260206004820152602560248201527f457363726f773a20546f6b656e53616c65436f6e747261637420616c726561646044820152641e481cd95d60da1b60648201526084015b60405180910390fd5b6001600160a01b0381166103a35760405162461bcd60e51b815260206004820152601760248201527f457363726f773a20696e76616c696420616464726573730000000000000000006044820152606401610344565b600280546001600160a01b0319166001600160a01b0383169081179091556040517f998c18cf7fdf3c572ac360d46aa11b7eb8bada83e6c971ce7444dae5a7fde6e890600090a250565b6103f5610a0c565b6103fd610a39565b8060ff166001148061041257508060ff166002145b61045e5760405162461bcd60e51b815260206004820181905260248201527f457363726f773a20696e76616c6964206d696c6573746f6e65206e756d6265726044820152606401610344565b6000600354116104b05760405162461bcd60e51b815260206004820152601a60248201527f457363726f773a206e6f2066756e647320696e20657363726f770000000000006044820152606401610344565b8060ff166001036106685760045460ff161561051a5760405162461bcd60e51b8152602060048201526024808201527f457363726f773a204d696c6573746f6e65203120616c72656164792072656c65604482015263185cd95960e21b6064820152608401610344565b6004805460ff1916600117905560035460009061053990600290610b2d565b905060007f00000000000000000000000000000000000000000000000000000000000000006001600160a01b03168260405160006040518083038185875af1925050503d80600081146105a8576040519150601f19603f3d011682016040523d82523d6000602084013e6105ad565b606091505b50509050806105f85760405162461bcd60e51b8152602060048201526017602482015276115cd8dc9bddce881d1c985b9cd9995c8819985a5b1959604a1b6044820152606401610344565b6040805160018152602081018490527f00000000000000000000000000000000000000000000000000000000000000006001600160a01b03168183015290517fb750a6ea27f3cdbf94a41b5f03fde4a9780cea62e42b8346e8e3acca825874009181900360600190a150506108b3565b60045460ff166106c95760405162461bcd60e51b815260206004820152602660248201527f457363726f773a204d7573742072656c65617365204d696c6573746f6e65203160448201526508199a5c9cdd60d21b6064820152608401610344565b600454610100900460ff161561072d5760405162461bcd60e51b8152602060048201526024808201527f457363726f773a204d696c6573746f6e65203220616c72656164792072656c65604482015263185cd95960e21b6064820152608401610344565b6004805461ff001916610100179055478061078a5760405162461bcd60e51b815260206004820152601c60248201527f457363726f773a206e6f2072656d61696e696e672062616c616e6365000000006044820152606401610344565b60007f00000000000000000000000000000000000000000000000000000000000000006001600160a01b03168260405160006040518083038185875af1925050503d80600081146107f7576040519150601f19603f3d011682016040523d82523d6000602084013e6107fc565b606091505b50509050806108475760405162461bcd60e51b8152602060048201526017602482015276115cd8dc9bddce881d1c985b9cd9995c8819985a5b1959604a1b6044820152606401610344565b6040805160028152602081018490527f00000000000000000000000000000000000000000000000000000000000000006001600160a01b03168183015290517fb750a6ea27f3cdbf94a41b5f03fde4a9780cea62e42b8346e8e3acca825874009181900360600190a150505b6108bc60018055565b50565b6108c7610a0c565b6108d16000610a63565b565b6002546001600160a01b0316331461093d5760405162461bcd60e51b815260206004820152602760248201527f457363726f773a2063616c6c6572206973206e6f7420546f6b656e53616c65436044820152661bdb9d1c9858dd60ca1b6064820152608401610344565b600034116109855760405162461bcd60e51b8152602060048201526015602482015274115cd8dc9bddce881b9bc8199d5b991cc81cd95b9d605a1b6044820152606401610344565b34600360008282546109979190610ab3565b90915550506040513481527f7cb5d45c1071f219bd2da1ea101758715bd52f23f2a707f2d9a0387dea18d9069060200160405180910390a1565b6109d9610a0c565b6001600160a01b038116610a0357604051631e4fbdf760e01b815260006004820152602401610344565b6108bc81610a63565b6000546001600160a01b031633146108d15760405163118cdaa760e01b8152336004820152602401610344565b600260015403610a5c57604051633ee5aeb560e01b815260040160405180910390fd5b6002600155565b600080546001600160a01b038381166001600160a01b0319831681178455604051919092169283917f8be0079c531659141344cd1fd0a4f28419497f9722a3daafe3b4186f6b6457e09190a35050565b80820180821115610ad457634e487b7160e01b600052601160045260246000fd5b92915050565b600060208284031215610aec57600080fd5b81356001600160a01b0381168114610b0357600080fd5b9392505050565b600060208284031215610b1c57600080fd5b813560ff81168114610b0357600080fd5b600082610b4a57634e487b7160e01b600052601260045260246000fd5b50049056fea26469706673582212207646588a8d2585a8714014181ddb1ffe3adea7ce21f799725132af3e06ef8cc964736f6c6343000814003360806040523480156200001157600080fd5b506040516200132438038062001324833981016040819052620000349162000367565b806001600160a01b0381166200006557604051631e4fbdf760e01b8152600060048201526024015b60405180910390fd5b620000708162000235565b506001805584620000c45760405162461bcd60e51b815260206004820152601a60248201527f53616c653a20736f667420636170206d757374206265203e203000000000000060448201526064016200005c565b84841015620001215760405162461bcd60e51b815260206004820152602260248201527f53616c653a206861726420636170206d757374206265203e3d20736f66742063604482015261061760f41b60648201526084016200005c565b6001600160a01b038216620001795760405162461bcd60e51b815260206004820152601c60248201527f53616c653a20696e76616c696420657363726f7720616464726573730000000060448201526064016200005c565b60008611620001cb5760405162461bcd60e51b815260206004820152601d60248201527f53616c653a20746f6b656e207072696365206d757374206265203e203000000060448201526064016200005c565b6002620001d98982620004ac565b506003620001e88882620004ac565b5060048690556005859055600684905562000204834262000578565b60075550600880546001600160a81b0319166001600160a01b039290921691909117905550620005a0945050505050565b600080546001600160a01b038381166001600160a01b0319831681178455604051919092169283917f8be0079c531659141344cd1fd0a4f28419497f9722a3daafe3b4186f6b6457e09190a35050565b634e487b7160e01b600052604160045260246000fd5b600082601f830112620002ad57600080fd5b81516001600160401b0380821115620002ca57620002ca62000285565b604051601f8301601f19908116603f01168101908282118183101715620002f557620002f562000285565b816040528381526020925086838588010111156200031257600080fd5b600091505b8382101562000336578582018301518183018401529082019062000317565b600093810190920192909252949350505050565b80516001600160a01b03811681146200036257600080fd5b919050565b600080600080600080600080610100898b0312156200038557600080fd5b88516001600160401b03808211156200039d57600080fd5b620003ab8c838d016200029b565b995060208b0151915080821115620003c257600080fd5b50620003d18b828c016200029b565b97505060408901519550606089015194506080890151935060a08901519250620003fe60c08a016200034a565b91506200040e60e08a016200034a565b90509295985092959890939650565b600181811c908216806200043257607f821691505b6020821081036200045357634e487b7160e01b600052602260045260246000fd5b50919050565b601f821115620004a757600081815260208120601f850160051c81016020861015620004825750805b601f850160051c820191505b81811015620004a3578281556001016200048e565b5050505b505050565b81516001600160401b03811115620004c857620004c862000285565b620004e081620004d984546200041d565b8462000459565b602080601f831160018114620005185760008415620004ff5750858301515b600019600386901b1c1916600185901b178555620004a3565b600085815260208120601f198616915b82811015620005495788860151825594840194600190910190840162000528565b5085821015620005685787850151600019600388901b60f8161c191681555b5050505050600190811b01905550565b808201808211156200059a57634e487b7160e01b600052601160045260246000fd5b92915050565b610d7480620005b06000396000f3fe6080604052600436106101145760003560e01c80637b61c320116100a0578063db83694c11610064578063db83694c146102ce578063e42a96e7146102f7578063e8b5e51f14610317578063f2fde38b1461031f578063fb86a4041461033f57600080fd5b80637b61c3201461022e5780638da5cb5b14610243578063906a26e01461027557806396b988621461028b578063c5c4744c146102b857600080fd5b8063380d831b116100e7578063380d831b1461019d578063590e1ae3146101b4578063603f4d52146101c95780636c02a931146101f7578063715018a61461021957600080fd5b806312065fe014610119578063146b58df1461013b57806329dcb0cf146101715780632f8de81014610187575b600080fd5b34801561012557600080fd5b50475b6040519081526020015b60405180910390f35b34801561014757600080fd5b50610128610156366004610b7a565b6001600160a01b03166000908152600a602052604090205490565b34801561017d57600080fd5b5061012860075481565b34801561019357600080fd5b5061012860045481565b3480156101a957600080fd5b506101b2610355565b005b3480156101c057600080fd5b506101b26104b1565b3480156101d557600080fd5b506008546101ea90600160a01b900460ff1681565b6040516101329190610be2565b34801561020357600080fd5b5061020c610686565b6040516101329190610c3c565b34801561022557600080fd5b506101b2610714565b34801561023a57600080fd5b5061020c610726565b34801561024f57600080fd5b506000546001600160a01b03165b6040516001600160a01b039091168152602001610132565b34801561028157600080fd5b5061012860055481565b34801561029757600080fd5b506101286102a6366004610b7a565b600a6020526000908152604090205481565b3480156102c457600080fd5b5061012860095481565b3480156102da57600080fd5b506102e3610733565b604051610132989796959493929190610c4f565b34801561030357600080fd5b5060085461025d906001600160a01b031681565b6101b26108a5565b34801561032b57600080fd5b506101b261033a366004610b7a565b610a95565b34801561034b57600080fd5b5061012860065481565b61035d610ad3565b6000600854600160a01b900460ff16600281111561037d5761037d610baa565b146103cf5760405162461bcd60e51b815260206004820152601860248201527f53616c653a2073616c6520616c726561647920656e646564000000000000000060448201526064015b60405180910390fd5b600554600954106104515760088054600160a01b60ff60a01b19821617909155604080516338b1076f60e21b815290516001600160a01b039092169163e2c41dbc914791600480830192600092919082900301818588803b15801561043357600080fd5b505af1158015610447573d6000803e3d6000fd5b5050505050610465565b6008805460ff60a01b1916600160a11b1790555b7fac70e1ec14b8eb05e5a740beb63a7f1abd94ed2a44aa812366b065bdd7adb823600860149054906101000a900460ff166009546040516104a7929190610cad565b60405180910390a1565b6104b9610b00565b6002600854600160a01b900460ff1660028111156104d9576104d9610baa565b146105265760405162461bcd60e51b815260206004820152601a60248201527f53616c653a20726566756e64206e6f7420617661696c61626c6500000000000060448201526064016103c6565b336000908152600a6020526040902054806105835760405162461bcd60e51b815260206004820152601d60248201527f53616c653a206e6f20696e766573746d656e7420746f20726566756e6400000060448201526064016103c6565b336000908152600a60205260408120819055600980548392906105a7908490610cde565b9091555050604051600090339083908381818185875af1925050503d80600081146105ee576040519150601f19603f3d011682016040523d82523d6000602084013e6105f3565b606091505b50509050806106445760405162461bcd60e51b815260206004820152601c60248201527f53616c653a20726566756e64207472616e73666572206661696c65640000000060448201526064016103c6565b60405182815233907fd7dee2702d63ad89917b6a4da9981c90c4d24f8c2bdfd64c604ecae57d8d06519060200160405180910390a2505061068460018055565b565b6002805461069390610cf1565b80601f01602080910402602001604051908101604052809291908181526020018280546106bf90610cf1565b801561070c5780601f106106e15761010080835404028352916020019161070c565b820191906000526020600020905b8154815290600101906020018083116106ef57829003601f168201915b505050505081565b61071c610ad3565b6106846000610b2a565b6003805461069390610cf1565b60608060008060008060008060026003600454600554600654600954600754600860149054906101000a900460ff16600281111561077357610773610baa565b87805461077f90610cf1565b80601f01602080910402602001604051908101604052809291908181526020018280546107ab90610cf1565b80156107f85780601f106107cd576101008083540402835291602001916107f8565b820191906000526020600020905b8154815290600101906020018083116107db57829003601f168201915b5050505050975086805461080b90610cf1565b80601f016020809104026020016040519081016040528092919081815260200182805461083790610cf1565b80156108845780601f1061085957610100808354040283529160200191610884565b820191906000526020600020905b81548152906001019060200180831161086757829003601f168201915b50505050509650975097509750975097509750975097509091929394959697565b6108ad610b00565b6000600854600160a01b900460ff1660028111156108cd576108cd610baa565b1461091a5760405162461bcd60e51b815260206004820152601860248201527f53616c653a2073616c65206973206e6f7420616374697665000000000000000060448201526064016103c6565b600754421061096b5760405162461bcd60e51b815260206004820152601e60248201527f53616c653a2073616c6520646561646c696e652068617320706173736564000060448201526064016103c6565b600034116109bb5760405162461bcd60e51b815260206004820152601c60248201527f53616c653a20696e766573746d656e74206d757374206265203e20300000000060448201526064016103c6565b600654346009546109cc9190610d2b565b1115610a1a5760405162461bcd60e51b815260206004820152601b60248201527f53616c653a20776f756c6420657863656564206861726420636170000000000060448201526064016103c6565b336000908152600a602052604081208054349290610a39908490610d2b565b925050819055503460096000828254610a529190610d2b565b909155505060405134815233907fc3f75dfc78f6efac88ad5abb5e606276b903647d97b2a62a1ef89840a658bbc39060200160405180910390a261068460018055565b610a9d610ad3565b6001600160a01b038116610ac757604051631e4fbdf760e01b8152600060048201526024016103c6565b610ad081610b2a565b50565b6000546001600160a01b031633146106845760405163118cdaa760e01b81523360048201526024016103c6565b600260015403610b2357604051633ee5aeb560e01b815260040160405180910390fd5b6002600155565b600080546001600160a01b038381166001600160a01b0319831681178455604051919092169283917f8be0079c531659141344cd1fd0a4f28419497f9722a3daafe3b4186f6b6457e09190a35050565b600060208284031215610b8c57600080fd5b81356001600160a01b0381168114610ba357600080fd5b9392505050565b634e487b7160e01b600052602160045260246000fd5b60038110610bde57634e487b7160e01b600052602160045260246000fd5b9052565b60208101610bf08284610bc0565b92915050565b6000815180845260005b81811015610c1c57602081850181015186830182015201610c00565b506000602082860101526020601f19601f83011685010191505092915050565b602081526000610ba36020830184610bf6565b6000610100808352610c638184018c610bf6565b90508281036020840152610c77818b610bf6565b604084019990995250506060810195909552608085019390935260a084019190915260c083015260ff1660e09091015292915050565b60408101610cbb8285610bc0565b8260208301529392505050565b634e487b7160e01b600052601160045260246000fd5b81810381811115610bf057610bf0610cc8565b600181811c90821680610d0557607f821691505b602082108103610d2557634e487b7160e01b600052602260045260246000fd5b50919050565b80820180821115610bf057610bf0610cc856fea2646970667358221220d223a51fe3e4358680750f09429aee83665c950ca079de88f879d9efa54b0a8564736f6c63430008140033a26469706673582212202b3d482f7525edd81c7a73ce2687b05f4d398a7b51e2ff232cf651daf7ed1b8264736f6c63430008140033",
  "linkReferences": {},
  "deployedLinkReferences": {}
}