{
  "_format": "hh-sol-artifact-1",
  "contractName": "TokenSaleContract",
  "sourceName": "contracts/TokenSaleContract.sol",
  "abi": [
    {
      "inputs": [
        {
          "internalType": "string",
          "name": "_tokenName",
          "type": "string"
        },
        {
          "internalType": "string",
          "name": "_tokenSymbol",
          "type": "string"
        },
        {
          "internalType": "uint256",
          "name": "_tokenPriceInWei",
          "type": "uint256"
        },
        {
          "internalType": "uint256",
          "name": "_softCap",
          "type": "uint256"
        },
        {
          "internalType": "uint256",
          "name": "_hardCap",
          "type": "uint256"
        },
        {
          "internalType": "uint256",
          "name": "_durationSeconds",
          "type": "uint256"
        },
        {
          "internalType": "address",
          "name": "_escrowContract",
          "type": "address"
        },
        {
          "internalType": "address",
          "name": "initialOwner",
          "type": "address"
        }
      ],
      "stateMutability": "nonpayable",
      "type": "constructor"
    },
    {
      "inputs": [
        {
          "internalType": "address",
          "name": "owner",
          "type": "address"
        }
      ],
      "name": "OwnableInvalidOwner",
      "type": "error"
    },
    {
      "inputs": [
        {
          "internalType": "address",
          "name": "account",
          "type": "address"
        }
      ],
      "name": "OwnableUnauthorizedAccount",
      "type": "error"
    },
    {
      "inputs": [],
      "name": "ReentrancyGuardReentrantCall",
      "type": "error"
    },
    {
      "anonymous": false,
      "inputs": [
        {
          "indexed": true,
          "internalType": "address",
          "name": "investor",
          "type": "address"
        },
        {
          "indexed": false,
          "internalType": "uint256",
          "name": "amount",
          "type": "uint256"
        }
      ],
      "name": "Invested",
      "type": "event"
    },
    {
      "anonymous": false,
      "inputs": [
        {
          "indexed": true,
          "internalType": "address",
          "name": "previousOwner",
          "type": "address"
        },
        {
          "indexed": true,
          "internalType": "address",
          "name": "newOwner",
          "type": "address"
        }
      ],
      "name": "OwnershipTransferred",
      "type": "event"
    },
    {
      "anonymous": false,
      "inputs": [
        {
          "indexed": true,
          "internalType": "address",
          "name": "investor",
          "type": "address"
        },
        {
          "indexed": false,
          "internalType": "uint256",
          "name": "amount",
          "type": "uint256"
        }
      ],
      "name": "Refunded",
      "type": "event"
    },
    {
      "anonymous": false,
      "inputs": [
        {
          "indexed": false,
          "internalType": "enum TokenSaleContract.SaleState",
          "name": "state",
          "type": "uint8"
        },
        {
          "indexed": false,
          "internalType": "uint256",
          "name": "totalRaised",
          "type": "uint256"
        }
      ],
      "name": "SaleEnded",
      "type": "event"
    },
    {
      "inputs": [],
      "name": "deadline",
      "outputs": [
        {
          "internalType": "uint256",
          "name": "",
          "type": "uint256"
        }
      ],
      "stateMutability": "view",
      "type": "function"
    },
    {
      "inputs": [],
      "name": "endSale",
      "outputs": [],
      "stateMutability": "nonpayable",
      "type": "function"
    },
    {
      "inputs": [],
      "name": "escrowContract",
      "outputs": [
        {
          "internalType": "address",
          "name": "",
          "type": "address"
        }
      ],
      "stateMutability": "view",
      "type": "function"
    },
    {
      "inputs": [],
      "name": "getBalance",
      "outputs": [
        {
          "internalType": "uint256",
          "name": "",
          "type": "uint256"
        }
      ],
      "stateMutability": "view",
      "type": "function"
    },
    {
      "inputs": [
        {
          "internalType": "address",
          "name": "investor",
          "type": "address"
        }
      ],
      "name": "getInvestment",
      "outputs": [
        {
          "internalType": "uint256",
          "name": "",
          "type": "uint256"
        }
      ],
      "stateMutability": "view",
      "type": "function"
    },
    {
      "inputs": [],
      "name": "getSaleInfo",
      "outputs": [
        {
          "internalType": "string",
          "name": "name",
          "type": "string"
        },
        {
          "internalType": "string",
          "name": "symbol",
          "type": "string"
        },
        {
          "internalType": "uint256",
          "name": "price",
          "type": "uint256"
        },
        {
          "internalType": "uint256",
          "name": "soft",
          "type": "uint256"
        },
        {
          "internalType": "uint256",
          "name": "hard",
          "type": "uint256"
        },
        {
          "internalType": "uint256",
          "name": "raised",
          "type": "uint256"
        },
        {
          "internalType": "uint256",
          "name": "deadlineTs",
          "type": "uint256"
        },
        {
          "internalType": "uint8",
          "name": "state",
          "type": "uint8"
        }
      ],
      "stateMutability": "view",
      "type": "function"
    },
    {
      "inputs": [],
      "name": "hardCap",
      "outputs": [
        {
          "internalType": "uint256",
          "name": "",
          "type": "uint256"
        }
      ],
      "stateMutability": "view",
      "type": "function"
    },
    {
      "inputs": [],
      "name": "invest",
      "outputs": [],
      "stateMutability": "payable",
      "type": "function"
    },
    {
      "inputs": [
        {
          "internalType": "address",
          "name": "",
          "type": "address"
        }
      ],
      "name": "investments",
      "outputs": [
        {
          "internalType": "uint256",
          "name": "",
          "type": "uint256"
        }
      ],
      "stateMutability": "view",
      "type": "function"
    },
    {
      "inputs": [],
      "name": "owner",
      "outputs": [
        {
          "internalType": "address",
          "name": "",
          "type": "address"
        }
      ],
      "stateMutability": "view",
      "type": "function"
    },
    {
      "inputs": [],
      "name": "refund",
      "outputs": [],
      "stateMutability": "nonpayable",
      "type": "function"
    },
    {
      "inputs": [],
      "name": "renounceOwnership",
      "outputs": [],
      "stateMutability": "nonpayable",
      "type": "function"
    },
    {
      "inputs": [],
      "name": "saleState",
      "outputs": [
        {
          "internalType": "enum TokenSaleContract.SaleState",
          "name": "",
          "type": "uint8"
        }
      ],
      "stateMutability": "view",
      "type": "function"
    },
    {
      "inputs": [],
      "name": "softCap",
      "outputs": [
        {
          "internalType": "uint256",
          "name": "",
          "type": "uint256"
        }
      ],
      "stateMutability": "view",
      "type": "function"
    },
    {
      "inputs": [],
      "name": "tokenName",
      "outputs": [
        {
          "internalType": "string",
          "name": "",
          "type": "string"
        }
      ],
      "stateMutability": "view",
      "type": "function"
    },
    {
      "inputs": [],
      "name": "tokenPriceInWei",
      "outputs": [
        {
          "internalType": "uint256",
          "name": "",
          "type": "uint256"
        }
      ],
      "stateMutability": "view",
      "type": "function"
    },
    {
      "inputs": [],
      "name": "tokenSymbol",
      "outputs": [
        {
          "internalType": "string",
          "name": "",
          "type": "string"
        }
      ],
      "stateMutability": "view",
      "type": "function"
    },
    {
      "inputs": [],
      "name": "totalRaised",
      "outputs": [
        {
          "internalType": "uint256",
          "name": "",
          "type": "uint256"
        }
      ],
      "stateMutability": "view",
      "type": "function"
    },
    {
      "inputs": [
        {
          "internalType": "address",
          "name": "newOwner",
          "type": "address"
        }
      ],
      "name": "transferOwnership",
      "outputs": [],
      "stateMutability": "nonpayable",
      "type": "function"
    }
  ],
  "bytecode": "0x60806040523480156200001157600080fd5b506040516200132438038062001324833981016040819052620000349162000367565b806001600160a01b0381166200006557604051631e4fbdf760e01b8152600060048201526024015b60405180910390fd5b620000708162000235565b506001805584620000c45760405162461bcd60e51b815260206004820152601a60248201527f53616c653a20736f667420636170206d757374206265203e203000000000000060448201526064016200005c565b84841015620001215760405162461bcd60e51b815260206004820152602260248201527f53616c653a206861726420636170206d757374206265203e3d20736f66742063604482015261061760f41b60648201526084016200005c565b6001600160a01b038216620001795760405162461bcd60e51b815260206004820152601c60248201527f53616c653a20696e76616c696420657363726f7720616464726573730000000060448201526064016200005c565b60008611620001cb5760405162461bcd60e51b815260206004820152601d60248201527f53616c653a20746f6b656e207072696365206d757374206265203e203000000060448201526064016200005c565b6002620001d98982620004ac565b506003620001e88882620004ac565b5060048690556005859055600684905562000204834262000578565b60075550600880546001600160a81b0319166001600160a01b039290921691909117905550620005a0945050505050565b600080546001600160a01b038381166001600160a01b0319831681178455604051919092169283917f8be0079c531659141344cd1fd0a4f28419497f9722a3daafe3b4186f6b6457e09190a35050565b634e487b7160e01b600052604160045260246000fd5b600082601f830112620002ad57600080fd5b81516001600160401b0380821115620002ca57620002ca62000285565b604051601f8301601f19908116603f01168101908282118183101715620002f557620002f562000285565b816040528381526020925086838588010111156200031257600080fd5b600091505b8382101562000336578582018301518183018401529082019062000317565b600093810190920192909252949350505050565b80516001600160a01b03811681146200036257600080fd5b919050565b600080600080600080600080610100898b0312156200038557600080fd5b88516001600160401b03808211156200039d57600080fd5b620003ab8c838d016200029b565b995060208b0151915080821115620003c257600080fd5b50620003d18b828c016200029b565b97505060408901519550606089015194506080890151935060a08901519250620003fe60c08a016200034a565b91506200040e60e08a016200034a565b90509295985092959890939650565b600181811c908216806200043257607f821691505b6020821081036200045357634e487b7160e01b600052602260045260246000fd5b50919050565b601f821115620004a757600081815260208120601f850160051c81016020861015620004825750805b601f850160051c820191505b81811015620004a3578281556001016200048e565b5050505b505050565b81516001600160401b03811115620004c857620004c862000285565b620004e081620004d984546200041d565b8462000459565b602080601f831160018114620005185760008415620004ff5750858301515b600019600386901b1c1916600185901b178555620004a3565b600085815260208120601f198616915b82811015620005495788860151825594840194600190910190840162000528565b5085821015620005685787850151600019600388901b60f8161c191681555b5050505050600190811b01905550565b808201808211156200059a57634e487b7160e01b600052601160045260246000fd5b92915050565b610d7480620005b06000396000f3fe6080604052600436106101145760003560e01c80637b61c320116100a0578063db83694c11610064578063db83694c146102ce578063e42a96e7146102f7578063e8b5e51f14610317578063f2fde38b1461031f578063fb86a4041461033f57600080fd5b80637b61c3201461022e5780638da5cb5b14610243578063906a26e01461027557806396b988621461028b578063c5c4744c146102b857600080fd5b8063380d831b116100e7578063380d831b1461019d578063590e1ae3146101b4578063603f4d52146101c95780636c02a931146101f7578063715018a61461021957600080fd5b806312065fe014610119578063146b58df1461013b57806329dcb0cf146101715780632f8de81014610187575b600080fd5b34801561012557600080fd5b50475b6040519081526020015b60405180910390f35b34801561014757600080fd5b50610128610156366004610b7a565b6001600160a01b03166000908152600a602052604090205490565b34801561017d57600080fd5b5061012860075481565b34801561019357600080fd5b5061012860045481565b3480156101a957600080fd5b506101b2610355565b005b3480156101c057600080fd5b506101b26104b1565b3480156101d557600080fd5b506008546101ea90600160a01b900460ff1681565b6040516101329190610be2565b34801561020357600080fd5b5061020c610686565b6040516101329190610c3c565b34801561022557600080fd5b506101b2610714565b34801561023a57600080fd5b5061020c610726565b34801561024f57600080fd5b506000546001600160a01b03165b6040516001600160a01b039091168152602001610132565b34801561028157600080fd5b5061012860055481565b34801561029757600080fd5b506101286102a6366004610b7a565b600a6020526000908152604090205481565b3480156102c457600080fd5b5061012860095481565b3480156102da57600080fd5b506102e3610733565b604051610132989796959493929190610c4f565b34801561030357600080fd5b5060085461025d906001600160a01b031681565b6101b26108a5565b34801561032b57600080fd5b506101b261033a366004610b7a565b610a95565b34801561034b57600080fd5b5061012860065481565b61035d610ad3565b6000600854600160a01b900460ff16600281111561037d5761037d610baa565b146103cf5760405162461bcd60e51b815260206004820152601860248201527f53616c653a2073616c6520616c726561647920656e646564000000000000000060448201526064015b60405180910390fd5b600554600954106104515760088054600160a01b60ff60a01b19821617909155604080516338b1076f60e21b815290516001600160a01b039092169163e2c41dbc914791600480830192600092919082900301818588803b15801561043357600080fd5b505af1158015610447573d6000803e3d6000fd5b5050505050610465565b6008805460ff60a01b1916600160a11b1790555b7fac70e1ec14b8eb05e5a740beb63a7f1abd94ed2a44aa812366b065bdd7adb823600860149054906101000a900460ff166009546040516104a7929190610cad565b60405180910390a1565b6104b9610b00565b6002600854600160a01b900460ff1660028111156104d9576104d9610baa565b146105265760405162461bcd60e51b815260206004820152601a60248201527f53616c653a20726566756e64206e6f7420617661696c61626c6500000000000060448201526064016103c6565b336000908152600a6020526040902054806105835760405162461bcd60e51b815260206004820152601d60248201527f53616c653a206e6f20696e766573746d656e7420746f20726566756e6400000060448201526064016103c6565b336000908152600a60205260408120819055600980548392906105a7908490610cde565b9091555050604051600090339083908381818185875af1925050503d80600081146105ee576040519150601f19603f3d011682016040523d82523d6000602084013e6105f3565b606091505b50509050806106445760405162461bcd60e51b815260206004820152601c60248201527f53616c653a20726566756e64207472616e73666572206661696c65640000000060448201526064016103c6565b60405182815233907fd7dee2702d63ad89917b6a4da9981c90c4d24f8c2bdfd64c604ecae57d8d06519060200160405180910390a2505061068460018055565b565b6002805461069390610cf1565b80601f01602080910402602001604051908101604052809291908181526020018280546106bf90610cf1565b801561070c5780601f106106e15761010080835404028352916020019161070c565b820191906000526020600020905b8154815290600101906020018083116106ef57829003601f168201915b505050505081565b61071c610ad3565b6106846000610b2a565b6003805461069390610cf1565b60608060008060008060008060026003600454600554600654600954600754600860149054906101000a900460ff16600281111561077357610773610baa565b87805461077f90610cf1565b80601f01602080910402602001604051908101604052809291908181526020018280546107ab90610cf1565b80156107f85780601f106107cd576101008083540402835291602001916107f8565b820191906000526020600020905b8154815290600101906020018083116107db57829003601f168201915b5050505050975086805461080b90610cf1565b80601f016020809104026020016040519081016040528092919081815260200182805461083790610cf1565b80156108845780601f1061085957610100808354040283529160200191610884565b820191906000526020600020905b81548152906001019060200180831161086757829003601f168201915b50505050509650975097509750975097509750975097509091929394959697565b6108ad610b00565b6000600854600160a01b900460ff1660028111156108cd576108cd610baa565b1461091a5760405162461bcd60e51b815260206004820152601860248201527f53616c653a2073616c65206973206e6f7420616374697665000000000000000060448201526064016103c6565b600754421061096b5760405162461bcd60e51b815260206004820152601e60248201527f53616c653a2073616c6520646561646c696e652068617320706173736564000060448201526064016103c6565b600034116109bb5760405162461bcd60e51b815260206004820152601c60248201527f53616c653a20696e766573746d656e74206d757374206265203e20300000000060448201526064016103c6565b600654346009546109cc9190610d2b565b1115610a1a5760405162461bcd60e51b815260206004820152601b60248201527f53616c653a20776f756c6420657863656564206861726420636170000000000060448201526064016103c6565b336000908152600a602052604081208054349290610a39908490610d2b565b925050819055503460096000828254610a529190610d2b565b909155505060405134815233907fc3f75dfc78f6efac88ad5abb5e606276b903647d97b2a62a1ef89840a658bbc39060200160405180910390a261068460018055565b610a9d610ad3565b6001600160a01b038116610ac757604051631e4fbdf760e01b8152600060048201526024016103c6565b610ad081610b2a565b50565b6000546001600160a01b031633146106845760405163118cdaa760e01b81523360048201526024016103c6565b600260015403610b2357604051633ee5aeb560e01b815260040160405180910390fd5b6002600155565b600080546001600160a01b038381166001600160a01b0319831681178455604051919092169283917f8be0079c531659141344cd1fd0a4f28419497f9722a3daafe3b4186f6b6457e09190a35050565b600060208284031215610b8c57600080fd5b81356001600160a01b0381168114610ba357600080fd5b9392505050565b634e487b7160e01b600052602160045260246000fd5b60038110610bde57634e487b7160e01b600052602160045260246000fd5b9052565b60208101610bf08284610bc0565b92915050565b6000815180845260005b81811015610c1c57602081850181015186830182015201610c00565b506000602082860101526020601f19601f83011685010191505092915050565b602081526000610ba36020830184610bf6565b6000610100808352610c638184018c610bf6565b90508281036020840152610c77818b610bf6565b604084019990995250506060810195909552608085019390935260a084019190915260c083015260ff1660e09091015292915050565b60408101610cbb8285610bc0565b8260208301529392505050565b634e487b7160e01b600052601160045260246000fd5b81810381811115610bf057610bf0610cc8565b600181811c90821680610d0557607f821691505b602082108103610d2557634e487b7160e01b600052602260045260246000fd5b50919050565b80820180821115610bf057610bf0610cc856fea2646970667358221220d223a51fe3e4358680750f09429aee83665c950ca079de88f879d9efa54b0a8564736f6c63430008140033",
  "linkReferences": {},
  "deployedLinkReferences": {}
}